{
  "address": "0xF8A2898061f31Da7110cC8c706530C0fE65598b7",
  "abi": [
    {
      "inputs": [
        {
          "internalType": "contract BaseRegistrarImplementation",
          "name": "_base",
          "type": "address"
        },
        {
          "internalType": "contract IPriceOracle",
          "name": "_prices",
          "type": "address"
        },
        {
          "internalType": "uint256",
          "name": "_minCommitmentAge",
          "type": "uint256"
        },
        {
          "internalType": "uint256",
          "name": "_maxCommitmentAge",
          "type": "uint256"
        },
        {
          "internalType": "contract ReverseRegistrar",
          "name": "_reverseRegistrar",
          "type": "address"
        },
        {
          "internalType": "contract INameWrapper",
          "name": "_nameWrapper",
          "type": "address"
        }
      ],
      "stateMutability": "nonpayable",
      "type": "constructor"
    },
    {
      "inputs": [
        {
          "internalType": "bytes32",
          "name": "commitment",
          "type": "bytes32"
        }
      ],
      "name": "CommitmentTooNew",
      "type": "error"
    },
    {
      "inputs": [
        {
          "internalType": "bytes32",
          "name": "commitment",
          "type": "bytes32"
        }
      ],
      "name": "CommitmentTooOld",
      "type": "error"
    },
    {
      "inputs": [
        {
          "internalType": "uint256",
          "name": "duration",
          "type": "uint256"
        }
      ],
      "name": "DurationTooShort",
      "type": "error"
    },
    {
      "inputs": [],
      "name": "InsufficientValue",
      "type": "error"
    },
    {
      "inputs": [],
      "name": "MaxCommitmentAgeTooHigh",
      "type": "error"
    },
    {
      "inputs": [],
      "name": "MaxCommitmentAgeTooLow",
      "type": "error"
    },
    {
      "inputs": [
        {
          "internalType": "string",
          "name": "name",
          "type": "string"
        }
      ],
      "name": "NameNotAvailable",
      "type": "error"
    },
    {
      "inputs": [],
      "name": "ResolverRequiredWhenDataSupplied",
      "type": "error"
    },
    {
      "inputs": [
        {
          "internalType": "bytes32",
          "name": "node",
          "type": "bytes32"
        }
      ],
      "name": "Unauthorised",
      "type": "error"
    },
    {
      "inputs": [
        {
          "internalType": "bytes32",
          "name": "commitment",
          "type": "bytes32"
        }
      ],
      "name": "UnexpiredCommitmentExists",
      "type": "error"
    },
    {
      "anonymous": false,
      "inputs": [
        {
          "indexed": false,
          "internalType": "string",
          "name": "name",
          "type": "string"
        },
        {
          "indexed": true,
          "internalType": "bytes32",
          "name": "label",
          "type": "bytes32"
        },
        {
          "indexed": true,
          "internalType": "address",
          "name": "owner",
          "type": "address"
        },
        {
          "indexed": false,
          "internalType": "uint256",
          "name": "baseCost",
          "type": "uint256"
        },
        {
          "indexed": false,
          "internalType": "uint256",
          "name": "premium",
          "type": "uint256"
        },
        {
          "indexed": false,
          "internalType": "uint256",
          "name": "expires",
          "type": "uint256"
        }
      ],
      "name": "NameRegistered",
      "type": "event"
    },
    {
      "anonymous": false,
      "inputs": [
        {
          "indexed": false,
          "internalType": "string",
          "name": "name",
          "type": "string"
        },
        {
          "indexed": true,
          "internalType": "bytes32",
          "name": "label",
          "type": "bytes32"
        },
        {
          "indexed": false,
          "internalType": "uint256",
          "name": "cost",
          "type": "uint256"
        },
        {
          "indexed": false,
          "internalType": "uint256",
          "name": "expires",
          "type": "uint256"
        }
      ],
      "name": "NameRenewed",
      "type": "event"
    },
    {
      "anonymous": false,
      "inputs": [
        {
          "indexed": true,
          "internalType": "address",
          "name": "previousOwner",
          "type": "address"
        },
        {
          "indexed": true,
          "internalType": "address",
          "name": "newOwner",
          "type": "address"
        }
      ],
      "name": "OwnershipTransferred",
      "type": "event"
    },
    {
      "inputs": [],
      "name": "MIN_REGISTRATION_DURATION",
      "outputs": [
        {
          "internalType": "uint256",
          "name": "",
          "type": "uint256"
        }
      ],
      "stateMutability": "view",
      "type": "function"
    },
    {
      "inputs": [
        {
          "internalType": "string",
          "name": "name",
          "type": "string"
        }
      ],
      "name": "available",
      "outputs": [
        {
          "internalType": "bool",
          "name": "",
          "type": "bool"
        }
      ],
      "stateMutability": "view",
      "type": "function"
    },
    {
      "inputs": [
        {
          "internalType": "bytes32",
          "name": "commitment",
          "type": "bytes32"
        }
      ],
      "name": "commit",
      "outputs": [],
      "stateMutability": "nonpayable",
      "type": "function"
    },
    {
      "inputs": [
        {
          "internalType": "bytes32",
          "name": "",
          "type": "bytes32"
        }
      ],
      "name": "commitments",
      "outputs": [
        {
          "internalType": "uint256",
          "name": "",
          "type": "uint256"
        }
      ],
      "stateMutability": "view",
      "type": "function"
    },
    {
      "inputs": [
        {
          "internalType": "string",
          "name": "name",
          "type": "string"
        },
        {
          "internalType": "address",
          "name": "owner",
          "type": "address"
        },
        {
          "internalType": "uint256",
          "name": "duration",
          "type": "uint256"
        },
        {
          "internalType": "bytes32",
          "name": "secret",
          "type": "bytes32"
        },
        {
          "internalType": "address",
          "name": "resolver",
          "type": "address"
        },
        {
          "internalType": "bytes[]",
          "name": "data",
          "type": "bytes[]"
        },
        {
          "internalType": "bool",
          "name": "reverseRecord",
          "type": "bool"
        },
        {
          "internalType": "uint32",
          "name": "fuses",
          "type": "uint32"
        },
        {
          "internalType": "uint64",
          "name": "wrapperExpiry",
          "type": "uint64"
        }
      ],
      "name": "makeCommitment",
      "outputs": [
        {
          "internalType": "bytes32",
          "name": "",
          "type": "bytes32"
        }
      ],
      "stateMutability": "pure",
      "type": "function"
    },
    {
      "inputs": [],
      "name": "maxCommitmentAge",
      "outputs": [
        {
          "internalType": "uint256",
          "name": "",
          "type": "uint256"
        }
      ],
      "stateMutability": "view",
      "type": "function"
    },
    {
      "inputs": [],
      "name": "minCommitmentAge",
      "outputs": [
        {
          "internalType": "uint256",
          "name": "",
          "type": "uint256"
        }
      ],
      "stateMutability": "view",
      "type": "function"
    },
    {
      "inputs": [],
      "name": "nameWrapper",
      "outputs": [
        {
          "internalType": "contract INameWrapper",
          "name": "",
          "type": "address"
        }
      ],
      "stateMutability": "view",
      "type": "function"
    },
    {
      "inputs": [],
      "name": "owner",
      "outputs": [
        {
          "internalType": "address",
          "name": "",
          "type": "address"
        }
      ],
      "stateMutability": "view",
      "type": "function"
    },
    {
      "inputs": [],
      "name": "prices",
      "outputs": [
        {
          "internalType": "contract IPriceOracle",
          "name": "",
          "type": "address"
        }
      ],
      "stateMutability": "view",
      "type": "function"
    },
    {
      "inputs": [
        {
          "internalType": "address",
          "name": "_token",
          "type": "address"
        },
        {
          "internalType": "address",
          "name": "_to",
          "type": "address"
        },
        {
          "internalType": "uint256",
          "name": "_amount",
          "type": "uint256"
        }
      ],
      "name": "recoverFunds",
      "outputs": [],
      "stateMutability": "nonpayable",
      "type": "function"
    },
    {
      "inputs": [
        {
          "internalType": "string",
          "name": "name",
          "type": "string"
        },
        {
          "internalType": "address",
          "name": "owner",
          "type": "address"
        },
        {
          "internalType": "uint256",
          "name": "duration",
          "type": "uint256"
        },
        {
          "internalType": "bytes32",
          "name": "secret",
          "type": "bytes32"
        },
        {
          "internalType": "address",
          "name": "resolver",
          "type": "address"
        },
        {
          "internalType": "bytes[]",
          "name": "data",
          "type": "bytes[]"
        },
        {
          "internalType": "bool",
          "name": "reverseRecord",
          "type": "bool"
        },
        {
          "internalType": "uint32",
          "name": "fuses",
          "type": "uint32"
        },
        {
          "internalType": "uint64",
          "name": "wrapperExpiry",
          "type": "uint64"
        }
      ],
      "name": "register",
      "outputs": [],
      "stateMutability": "payable",
      "type": "function"
    },
    {
      "inputs": [
        {
          "internalType": "string",
          "name": "name",
          "type": "string"
        },
        {
          "internalType": "uint256",
          "name": "duration",
          "type": "uint256"
        }
      ],
      "name": "renew",
      "outputs": [],
      "stateMutability": "payable",
      "type": "function"
    },
    {
      "inputs": [
        {
          "internalType": "string",
          "name": "name",
          "type": "string"
        },
        {
          "internalType": "uint256",
          "name": "duration",
          "type": "uint256"
        },
        {
          "internalType": "uint32",
          "name": "fuses",
          "type": "uint32"
        },
        {
          "internalType": "uint64",
          "name": "wrapperExpiry",
          "type": "uint64"
        }
      ],
      "name": "renewWithFuses",
      "outputs": [],
      "stateMutability": "payable",
      "type": "function"
    },
    {
      "inputs": [],
      "name": "renounceOwnership",
      "outputs": [],
      "stateMutability": "nonpayable",
      "type": "function"
    },
    {
      "inputs": [
        {
          "internalType": "string",
          "name": "name",
          "type": "string"
        },
        {
          "internalType": "uint256",
          "name": "duration",
          "type": "uint256"
        }
      ],
      "name": "rentPrice",
      "outputs": [
        {
          "components": [
            {
              "internalType": "uint256",
              "name": "base",
              "type": "uint256"
            },
            {
              "internalType": "uint256",
              "name": "premium",
              "type": "uint256"
            }
          ],
          "internalType": "struct IPriceOracle.Price",
          "name": "price",
          "type": "tuple"
        }
      ],
      "stateMutability": "view",
      "type": "function"
    },
    {
      "inputs": [],
      "name": "reverseRegistrar",
      "outputs": [
        {
          "internalType": "contract ReverseRegistrar",
          "name": "",
          "type": "address"
        }
      ],
      "stateMutability": "view",
      "type": "function"
    },
    {
      "inputs": [
        {
          "internalType": "bytes4",
          "name": "interfaceID",
          "type": "bytes4"
        }
      ],
      "name": "supportsInterface",
      "outputs": [
        {
          "internalType": "bool",
          "name": "",
          "type": "bool"
        }
      ],
      "stateMutability": "pure",
      "type": "function"
    },
    {
      "inputs": [
        {
          "internalType": "address",
          "name": "newOwner",
          "type": "address"
        }
      ],
      "name": "transferOwnership",
      "outputs": [],
      "stateMutability": "nonpayable",
      "type": "function"
    },
    {
      "inputs": [
        {
          "internalType": "string",
          "name": "name",
          "type": "string"
        }
      ],
      "name": "valid",
      "outputs": [
        {
          "internalType": "bool",
          "name": "",
          "type": "bool"
        }
      ],
      "stateMutability": "pure",
      "type": "function"
    },
    {
      "inputs": [],
      "name": "withdraw",
      "outputs": [],
      "stateMutability": "nonpayable",
      "type": "function"
    }
  ],
  "transactionHash": "0xbb27dca28703eae6c44e408da650d0c02f2b43fff2af60532950715532284195",
  "args": [
    "0x7bD1d65640e9Ee51b06a8Ee55b2Ea601704F76E5",
    "0xD66b300aF284D7538349740B341474f122316017",
    60,
    86400,
    "0xeB2c79dCFF3674E35bc45fB4685449D389086291",
    "0x396bBd3D9Ff5910f1d192b04F79Ae8f4cD593648"
  ],
  "numDeployments": 1,
  "solcInputHash": "3b18f6271c7bf03e952f5ac536f97678",
  "bytecode": "0x6101406040523480156200001257600080fd5b50604051620025ab380380620025ab83398101604081905262000035916200011a565b6200004033620000b1565b83831162000061576040516307cb550760e31b815260040160405180910390fd5b428311156200008357604051630b4319e560e21b815260040160405180910390fd5b6001600160a01b0395861660805293851660a05260c09290925260e052821661010052166101205262000197565b600080546001600160a01b038381166001600160a01b0319831681178455604051919092169283917f8be0079c531659141344cd1fd0a4f28419497f9722a3daafe3b4186f6b6457e09190a35050565b6001600160a01b03811681146200011757600080fd5b50565b60008060008060008060c087890312156200013457600080fd5b8651620001418162000101565b6020880151909650620001548162000101565b8095505060408701519350606087015192506080870151620001768162000101565b60a0880151909250620001898162000101565b809150509295509295509295565b60805160a05160c05160e0516101005161012051612385620002266000396000818161038d0152818161074f015281816109e4015261119401526000818161022801526115820152600081816103f401528181610f0301526113aa01526000818161030e01526113330152600081816104280152610c30015260008181610c720152610db701526123856000f3fe60806040526004361061016a5760003560e01c80638d839ffe116100cb578063aeb8ce9b1161007f578063d555254a11610059578063d555254a1461044a578063f14fcbc81461046a578063f2fde38b1461048a57600080fd5b8063aeb8ce9b146103c2578063ce1e09c0146103e2578063d3419bf31461041657600080fd5b80639791c097116100b05780639791c0971461035b578063a8e5fbc01461037b578063acf1a841146103af57600080fd5b80638d839ffe146102fc5780638da5cb5b1461033057600080fd5b80637acaaf2611610122578063839df94511610107578063839df9451461026f57806383e7f6ff146102aa5780638a95b09f146102e557600080fd5b80637acaaf2614610203578063808698531461021657600080fd5b80635d3590d5116101535780635d3590d5146101bb5780636459220f146101db578063715018a6146101ee57600080fd5b806301ffc9a71461016f5780633ccfd60b146101a4575b600080fd5b34801561017b57600080fd5b5061018f61018a366004611848565b6104aa565b60405190151581526020015b60405180910390f35b3480156101b057600080fd5b506101b9610543565b005b3480156101c757600080fd5b506101b96101d63660046118b3565b61058d565b6101b96101e9366004611964565b6106b2565b3480156101fa57600080fd5b506101b9610820565b6101b9610211366004611a25565b6108ad565b34801561022257600080fd5b5061024a7f000000000000000000000000000000000000000000000000000000000000000081565b60405173ffffffffffffffffffffffffffffffffffffffff909116815260200161019b565b34801561027b57600080fd5b5061029c61028a366004611afe565b60016020526000908152604090205481565b60405190815260200161019b565b3480156102b657600080fd5b506102ca6102c5366004611bf5565b610be6565b6040805182518152602092830151928101929092520161019b565b3480156102f157600080fd5b5061029c6224ea0081565b34801561030857600080fd5b5061029c7f000000000000000000000000000000000000000000000000000000000000000081565b34801561033c57600080fd5b5060005473ffffffffffffffffffffffffffffffffffffffff1661024a565b34801561036757600080fd5b5061018f610376366004611c3a565b610d46565b34801561038757600080fd5b5061024a7f000000000000000000000000000000000000000000000000000000000000000081565b6101b96103bd366004611c6f565b610d5b565b3480156103ce57600080fd5b5061018f6103dd366004611c3a565b610d6e565b3480156103ee57600080fd5b5061029c7f000000000000000000000000000000000000000000000000000000000000000081565b34801561042257600080fd5b5061024a7f000000000000000000000000000000000000000000000000000000000000000081565b34801561045657600080fd5b5061029c610465366004611cbb565b610e3e565b34801561047657600080fd5b506101b9610485366004611afe565b610eec565b34801561049657600080fd5b506101b96104a5366004611d8e565b610f75565b60007fffffffff0000000000000000000000000000000000000000000000000000000082167f01ffc9a700000000000000000000000000000000000000000000000000000000148061053d57507fffffffff0000000000000000000000000000000000000000000000000000000082167fdf7ed18100000000000000000000000000000000000000000000000000000000145b92915050565b6000805460405173ffffffffffffffffffffffffffffffffffffffff909116914780156108fc02929091818181858888f1935050505015801561058a573d6000803e3d6000fd5b50565b60005473ffffffffffffffffffffffffffffffffffffffff163314610613576040517f08c379a000000000000000000000000000000000000000000000000000000000815260206004820181905260248201527f4f776e61626c653a2063616c6c6572206973206e6f7420746865206f776e657260448201526064015b60405180910390fd5b6040517fa9059cbb00000000000000000000000000000000000000000000000000000000815273ffffffffffffffffffffffffffffffffffffffff83811660048301526024820183905284169063a9059cbb906044016020604051808303816000875af1158015610688573d6000803e3d6000fd5b505050506040513d601f19601f820116820180604052508101906106ac9190611da9565b50505050565b600085856040516106c4929190611dc6565b604080519182900382207fb5f2bbf81da581299d4ff7af60560c0ac854196f5227328d2d0c2bb0df33e5536020840152908201819052915060009060600160408051808303601f190181529082905280516020909101207ff44779b90000000000000000000000000000000000000000000000000000000082526004820181905233602483015291507f000000000000000000000000000000000000000000000000000000000000000073ffffffffffffffffffffffffffffffffffffffff169063f44779b9906044016020604051808303816000875af11580156107ad573d6000803e3d6000fd5b505050506040513d601f19601f820116820180604052508101906107d19190611da9565b61080a576040517fe4fd57ae0000000000000000000000000000000000000000000000000000000081526004810182905260240161060a565b61081787878787876110a2565b50505050505050565b60005473ffffffffffffffffffffffffffffffffffffffff1633146108a1576040517f08c379a000000000000000000000000000000000000000000000000000000000815260206004820181905260248201527f4f776e61626c653a2063616c6c6572206973206e6f7420746865206f776e6572604482015260640161060a565b6108ab60006112a7565b565b60006108f08c8c8080601f0160208091040260200160405190810160405280939291908181526020018383808284376000920191909152508d9250610be6915050565b6020810151815191925061090391611e05565b34101561093c576040517f1101129400000000000000000000000000000000000000000000000000000000815260040160405180910390fd5b6109e08c8c8080601f016020809104026020016040519081016040528093929190818152602001838380828437600081840152601f19601f820116905080830192505050505050508a6109db8f8f8080601f016020809104026020016040519081016040528093929190818152602001838380828437600081840152601f19601f820116905080830192505050505050508e8e8e8e8e8e8e8e8e610e3e565b61131c565b60007f000000000000000000000000000000000000000000000000000000000000000073ffffffffffffffffffffffffffffffffffffffff16639f56dac68e8e8e8e8d8a8a6040518863ffffffff1660e01b8152600401610a479796959493929190611e43565b6020604051808303816000875af1158015610a66573d6000803e3d6000fd5b505050506040513d601f19601f82011682018060405250810190610a8a9190611ead565b90508515610ab557610ab5888e8e604051610aa6929190611dc6565b60405180910390208989611499565b8415610afe57610afe8d8d8080601f0160208091040260200160405190810160405280939291908181526020018383808284376000920191909152508c92503391506115809050565b8a73ffffffffffffffffffffffffffffffffffffffff168d8d604051610b25929190611dc6565b60405180910390207f69e37f151eb98a09618ddaa80c8cfaf1ce5996867c489f45b555b412271ebf278f8f8660000151876020015187604051610b6c959493929190611ec6565b60405180910390a360208201518251610b859190611e05565b341115610bd7576020820151825133916108fc91610ba39190611e05565b610bad9034611ef7565b6040518115909202916000818181858888f19350505050158015610bd5573d6000803e3d6000fd5b505b50505050505050505050505050565b6040805180820190915260008082526020820152825160208401206040517fd6e4fa86000000000000000000000000000000000000000000000000000000008152600481018290527f000000000000000000000000000000000000000000000000000000000000000073ffffffffffffffffffffffffffffffffffffffff908116916350e9a7159187917f00000000000000000000000000000000000000000000000000000000000000009091169063d6e4fa8690602401602060405180830381865afa158015610cbb573d6000803e3d6000fd5b505050506040513d601f19601f82011682018060405250810190610cdf9190611ead565b866040518463ffffffff1660e01b8152600401610cfe93929190611f5a565b6040805180830381865afa158015610d1a573d6000803e3d6000fd5b505050506040513d601f19601f82011682018060405250810190610d3e9190611f7f565b949350505050565b60006003610d5383611641565b101592915050565b610d698383836000806110a2565b505050565b80516020820120600090610d8183610d46565b8015610e3757506040517f96e494e8000000000000000000000000000000000000000000000000000000008152600481018290527f000000000000000000000000000000000000000000000000000000000000000073ffffffffffffffffffffffffffffffffffffffff16906396e494e890602401602060405180830381865afa158015610e13573d6000803e3d6000fd5b505050506040513d601f19601f82011682018060405250810190610e379190611da9565b9392505050565b895160208b01206000908515801590610e6b575073ffffffffffffffffffffffffffffffffffffffff8816155b15610ea2576040517fd3f605c400000000000000000000000000000000000000000000000000000000815260040160405180910390fd5b808b8b8a8a8a8e8b8b8b604051602001610ec59a9998979695949392919061207e565b604051602081830303815290604052805190602001209150509a9950505050505050505050565b6000818152600160205260409020544290610f28907f000000000000000000000000000000000000000000000000000000000000000090611e05565b10610f62576040517f0a059d710000000000000000000000000000000000000000000000000000000081526004810182905260240161060a565b6000908152600160205260409020429055565b60005473ffffffffffffffffffffffffffffffffffffffff163314610ff6576040517f08c379a000000000000000000000000000000000000000000000000000000000815260206004820181905260248201527f4f776e61626c653a2063616c6c6572206973206e6f7420746865206f776e6572604482015260640161060a565b73ffffffffffffffffffffffffffffffffffffffff8116611099576040517f08c379a000000000000000000000000000000000000000000000000000000000815260206004820152602660248201527f4f776e61626c653a206e6577206f776e657220697320746865207a65726f206160448201527f6464726573730000000000000000000000000000000000000000000000000000606482015260840161060a565b61058a816112a7565b600085856040516110b4929190611dc6565b604080519182900382206020601f89018190048102840181019092528783529250829160009161110191908a908a90819084018382808284376000920191909152508a9250610be6915050565b805190915034101561113f576040517f1101129400000000000000000000000000000000000000000000000000000000815260040160405180910390fd5b6040517f47d2e9fe000000000000000000000000000000000000000000000000000000008152600481018390526024810187905263ffffffff8616604482015267ffffffffffffffff851660648201526000907f000000000000000000000000000000000000000000000000000000000000000073ffffffffffffffffffffffffffffffffffffffff16906347d2e9fe906084016020604051808303816000875af11580156111f2573d6000803e3d6000fd5b505050506040513d601f19601f820116820180604052508101906112169190611ead565b825190915034111561125e57815133906108fc906112349034611ef7565b6040518115909202916000818181858888f1935050505015801561125c573d6000803e3d6000fd5b505b837f3da24c024582931cfaf8267d8ed24d13a82a8068d5bd337d30ec45cea4e506ae8a8a34856040516112949493929190612100565b60405180910390a2505050505050505050565b6000805473ffffffffffffffffffffffffffffffffffffffff8381167fffffffffffffffffffffffff0000000000000000000000000000000000000000831681178455604051919092169283917f8be0079c531659141344cd1fd0a4f28419497f9722a3daafe3b4186f6b6457e09190a35050565b6000818152600160205260409020544290611358907f000000000000000000000000000000000000000000000000000000000000000090611e05565b1115611393576040517f5320bcf90000000000000000000000000000000000000000000000000000000081526004810182905260240161060a565b60008181526001602052604090205442906113cf907f000000000000000000000000000000000000000000000000000000000000000090611e05565b11611409576040517fcb7690d70000000000000000000000000000000000000000000000000000000081526004810182905260240161060a565b61141283610d6e565b61144a57826040517f477707e800000000000000000000000000000000000000000000000000000000815260040161060a9190612127565b6000818152600160205260408120556224ea00821015610d69576040517f9a71997b0000000000000000000000000000000000000000000000000000000081526004810183905260240161060a565b604080517fb5f2bbf81da581299d4ff7af60560c0ac854196f5227328d2d0c2bb0df33e553602080830191909152818301869052825180830384018152606083019384905280519101207fe32954eb00000000000000000000000000000000000000000000000000000000909252859073ffffffffffffffffffffffffffffffffffffffff82169063e32954eb906115399085908890889060640161213a565b6000604051808303816000875af1158015611558573d6000803e3d6000fd5b505050506040513d6000823e601f3d908101601f19168201604052610817919081019061215d565b7f000000000000000000000000000000000000000000000000000000000000000073ffffffffffffffffffffffffffffffffffffffff16637a806d6b338385876040516020016115d0919061225c565b6040516020818303038152906040526040518563ffffffff1660e01b81526004016115fe949392919061229d565b6020604051808303816000875af115801561161d573d6000803e3d6000fd5b505050506040513d601f19601f820116820180604052508101906106ac9190611ead565b8051600090819081905b8082101561183f576000858381518110611667576116676122e8565b01602001517fff000000000000000000000000000000000000000000000000000000000000001690507f80000000000000000000000000000000000000000000000000000000000000008110156116ca576116c3600184611e05565b925061182c565b7fe0000000000000000000000000000000000000000000000000000000000000007fff000000000000000000000000000000000000000000000000000000000000008216101561171f576116c3600284611e05565b7ff0000000000000000000000000000000000000000000000000000000000000007fff0000000000000000000000000000000000000000000000000000000000000082161015611774576116c3600384611e05565b7ff8000000000000000000000000000000000000000000000000000000000000007fff00000000000000000000000000000000000000000000000000000000000000821610156117c9576116c3600484611e05565b7ffc000000000000000000000000000000000000000000000000000000000000007fff000000000000000000000000000000000000000000000000000000000000008216101561181e576116c3600584611e05565b611829600684611e05565b92505b508261183781612317565b93505061164b565b50909392505050565b60006020828403121561185a57600080fd5b81357fffffffff0000000000000000000000000000000000000000000000000000000081168114610e3757600080fd5b803573ffffffffffffffffffffffffffffffffffffffff811681146118ae57600080fd5b919050565b6000806000606084860312156118c857600080fd5b6118d18461188a565b92506118df6020850161188a565b9150604084013590509250925092565b60008083601f84011261190157600080fd5b50813567ffffffffffffffff81111561191957600080fd5b60208301915083602082850101111561193157600080fd5b9250929050565b803563ffffffff811681146118ae57600080fd5b803567ffffffffffffffff811681146118ae57600080fd5b60008060008060006080868803121561197c57600080fd5b853567ffffffffffffffff81111561199357600080fd5b61199f888289016118ef565b909650945050602086013592506119b860408701611938565b91506119c66060870161194c565b90509295509295909350565b60008083601f8401126119e457600080fd5b50813567ffffffffffffffff8111156119fc57600080fd5b6020830191508360208260051b850101111561193157600080fd5b801515811461058a57600080fd5b60008060008060008060008060008060006101208c8e031215611a4757600080fd5b67ffffffffffffffff808d351115611a5e57600080fd5b611a6b8e8e358f016118ef565b909c509a50611a7c60208e0161188a565b995060408d0135985060608d01359750611a9860808e0161188a565b96508060a08e01351115611aab57600080fd5b50611abc8d60a08e01358e016119d2565b909550935060c08c0135611acf81611a17565b9250611add60e08d01611938565b9150611aec6101008d0161194c565b90509295989b509295989b9093969950565b600060208284031215611b1057600080fd5b5035919050565b7f4e487b7100000000000000000000000000000000000000000000000000000000600052604160045260246000fd5b604051601f8201601f1916810167ffffffffffffffff81118282101715611b6f57611b6f611b17565b604052919050565b600067ffffffffffffffff821115611b9157611b91611b17565b50601f01601f191660200190565b600082601f830112611bb057600080fd5b8135611bc3611bbe82611b77565b611b46565b818152846020838601011115611bd857600080fd5b816020850160208301376000918101602001919091529392505050565b60008060408385031215611c0857600080fd5b823567ffffffffffffffff811115611c1f57600080fd5b611c2b85828601611b9f565b95602094909401359450505050565b600060208284031215611c4c57600080fd5b813567ffffffffffffffff811115611c6357600080fd5b610d3e84828501611b9f565b600080600060408486031215611c8457600080fd5b833567ffffffffffffffff811115611c9b57600080fd5b611ca7868287016118ef565b909790965060209590950135949350505050565b6000806000806000806000806000806101208b8d031215611cdb57600080fd5b8a3567ffffffffffffffff80821115611cf357600080fd5b611cff8e838f01611b9f565b9b50611d0d60208e0161188a565b9a5060408d0135995060608d01359850611d2960808e0161188a565b975060a08d0135915080821115611d3f57600080fd5b50611d4c8d828e016119d2565b90965094505060c08b0135611d6081611a17565b9250611d6e60e08c01611938565b9150611d7d6101008c0161194c565b90509295989b9194979a5092959850565b600060208284031215611da057600080fd5b610e378261188a565b600060208284031215611dbb57600080fd5b8151610e3781611a17565b8183823760009101908152919050565b7f4e487b7100000000000000000000000000000000000000000000000000000000600052601160045260246000fd5b8082018082111561053d5761053d611dd6565b818352818160208501375060006020828401015260006020601f19601f840116840101905092915050565b60c081526000611e5760c08301898b611e18565b905073ffffffffffffffffffffffffffffffffffffffff808816602084015286604084015280861660608401525063ffffffff8416608083015267ffffffffffffffff831660a083015298975050505050505050565b600060208284031215611ebf57600080fd5b5051919050565b608081526000611eda608083018789611e18565b602083019590955250604081019290925260609091015292915050565b8181038181111561053d5761053d611dd6565b60005b83811015611f25578181015183820152602001611f0d565b50506000910152565b60008151808452611f46816020860160208601611f0a565b601f01601f19169290920160200192915050565b606081526000611f6d6060830186611f2e565b60208301949094525060400152919050565b600060408284031215611f9157600080fd5b6040516040810181811067ffffffffffffffff82111715611fb457611fb4611b17565b604052825181526020928301519281019290925250919050565b81835260006020808501808196508560051b810191508460005b8781101561207157828403895281357fffffffffffffffffffffffffffffffffffffffffffffffffffffffffffffffe188360301811261202757600080fd5b8701858101903567ffffffffffffffff81111561204357600080fd5b80360382131561205257600080fd5b61205d868284611e18565b9a87019a9550505090840190600101611fe8565b5091979650505050505050565b60006101208c835273ffffffffffffffffffffffffffffffffffffffff808d1660208501528b6040850152808b166060850152508060808401526120c5818401898b611fce565b60a0840197909752505092151560c084015263ffffffff9190911660e083015267ffffffffffffffff16610100909101529695505050505050565b606081526000612114606083018688611e18565b6020830194909452506040015292915050565b602081526000610e376020830184611f2e565b838152604060208201526000612154604083018486611fce565b95945050505050565b6000602080838503121561217057600080fd5b825167ffffffffffffffff8082111561218857600080fd5b818501915085601f83011261219c57600080fd5b8151818111156121ae576121ae611b17565b8060051b6121bd858201611b46565b91825283810185019185810190898411156121d757600080fd5b86860192505b8383101561224f578251858111156121f55760008081fd5b8601603f81018b136122075760008081fd5b878101516040612219611bbe83611b77565b8281528d8284860101111561222e5760008081fd5b61223d838c8301848701611f0a565b855250505091860191908601906121dd565b9998505050505050505050565b6000825161226e818460208701611f0a565b7f2e64616f00000000000000000000000000000000000000000000000000000000920191825250600401919050565b600073ffffffffffffffffffffffffffffffffffffffff80871683528086166020840152808516604084015250608060608301526122de6080830184611f2e565b9695505050505050565b7f4e487b7100000000000000000000000000000000000000000000000000000000600052603260045260246000fd5b60007fffffffffffffffffffffffffffffffffffffffffffffffffffffffffffffffff820361234857612348611dd6565b506001019056fea264697066735822122036b3316c832bbf016abacad40242d8d064adcc704de1f91acfeed71138ecd14364736f6c63430008110033",
  "devdoc": {
    "details": "A registrar controller for registering and renewing names at fixed cost.",
    "kind": "dev",
    "methods": {
      "owner()": {
        "details": "Returns the address of the current owner."
      },
      "recoverFunds(address,address,uint256)": {
        "details": "The contract is Ownable and only the owner can call the recover function.",
        "params": {
          "_amount": "The amount of tokens to recover.",
          "_to": "The address to send the tokens to.",
          "_token": "The address of the ERC20 token to recover"
        }
      },
      "renounceOwnership()": {
        "details": "Leaves the contract without owner. It will not be possible to call `onlyOwner` functions anymore. Can only be called by the current owner. NOTE: Renouncing ownership will leave the contract without an owner, thereby removing any functionality that is only available to the owner."
      },
      "transferOwnership(address)": {
        "details": "Transfers ownership of the contract to a new account (`newOwner`). Can only be called by the current owner."
      }
    },
    "version": 1
  },
  "userdoc": {
    "kind": "user",
    "methods": {
      "recoverFunds(address,address,uint256)": {
        "notice": "Recover ERC20 tokens sent to the contract by mistake."
      }
    },
    "version": 1
  },
  "storageLayout": {
    "storage": [
      {
        "astId": 545,
        "contract": "contracts/ethregistrar/ETHRegistrarController.sol:ETHRegistrarController",
        "label": "_owner",
        "offset": 0,
        "slot": "0",
        "type": "t_address"
      },
      {
        "astId": 9866,
        "contract": "contracts/ethregistrar/ETHRegistrarController.sol:ETHRegistrarController",
        "label": "commitments",
        "offset": 0,
        "slot": "1",
        "type": "t_mapping(t_bytes32,t_uint256)"
      }
    ],
    "types": {
      "t_address": {
        "encoding": "inplace",
        "label": "address",
        "numberOfBytes": "20"
      },
      "t_bytes32": {
        "encoding": "inplace",
        "label": "bytes32",
        "numberOfBytes": "32"
      },
      "t_mapping(t_bytes32,t_uint256)": {
        "encoding": "mapping",
        "key": "t_bytes32",
        "label": "mapping(bytes32 => uint256)",
        "numberOfBytes": "32",
        "value": "t_uint256"
      },
      "t_uint256": {
        "encoding": "inplace",
        "label": "uint256",
        "numberOfBytes": "32"
      }
    }
  }
}